:100000000C942A000C943C000C943C000C943C0092
:100010000C943C000C943C000C943C000C943C0070
:100020000C943C000C943C000C943C000C943C0060
:100030000C943C000C943C000C943C000C943C0050
:100040000C943C000C943C000C943C000C943C0040
:100050000C943C0011241FBECFE5D4E0DEBFCDBF21
:1000600020E0A0E6B0E001C01D92A136B207E1F7A2
:100070000E9492010C94D3010C940000009789F027
:1000800020E030E062EF54E041E062BF53BF08B6C9
:1000900000FEFDCF13BE48BF2F5F3F4F2817390723
:1000A000A1F708959BB3282F207F9F70922B9BBBB5
:1000B000DA98DB9AE7ECF0E03197F1F700C0000046
:1000C000DB98EFE1F3E03197F1F700C000002BB3CC
:1000D000F0E18F9FC0011124922F9F70892B8BBB61
:1000E000DB9A87EC90E00197F1F700C00000DB9805
:1000F00008959BB3282F207F9F70922B9BBBDA9A89
:10010000DB9AE7ECF0E03197F1F700C00000DB98F4
:10011000EFE3FFE13197F1F700C000002BB3F0E10E
:100120008F9FC0011124922F9F70892B8BBBDB9A6C
:100130008FE39FE10197F1F700C00000DB9808957D
:100140008CEF8ABBDB982FEF83EC99E02150804045
:100150009040E1F700C0000083E30E9452002FEFBF
:1001600089EF90E0215080409040E1F700C000000E
:1001700082E30E9452002FEF89EF90E021508040EF
:100180009040E1F700C0000088E20E9452002FEF8B
:1001900089EF90E0215080409040E1F700C00000DE
:1001A0008EE00E9452002FEF89EF90E021508040B6
:1001B0009040E1F700C0000081E00E9452002FEF64
:1001C00089EF90E0215080409040E1F700C00000AE
:1001D000089583B3809360000E9479008EEF85BB01
:1001E00083B3807F803E39F484E190E00E943E003A
:1001F00081E30E9479008DEF85BB83B3807F803ED1
:1002000039F484E190E00E943E0084E30E9479008A
:100210008BEF85BB83B3807F803E39F484E190E02F
:100220000E943E0087E30E94790087EF85BB83B37D
:10023000807F803E39F484E190E00E943E008AE2B3
:100240000E94790008958EEF85BB83B3807F803D47
:1002500019F482E30E9479008DEF85BB83B3807F20
:10026000803D19F485E30E9479008BEF85BB83B351
:10027000807F803D19F488E30E94790087EF85BB79
:1002800083B3807F803D19F480E30E947900089554
:100290008EEF85BB83B3807F803B19F483E30E949C
:1002A00079008DEF85BB83B3807F803B19F486E3B3
:1002B0000E9479008BEF85BB83B3807F803B19F46C
:1002C00089E30E94790087EF85BB83B3807F803B01
:1002D00019F483E20E94790008958EEF85BB83B301
:1002E000807F803719F481E40E9479008DEF85BB0F
:1002F00083B3807F803719F482E40E9479008BEF0A
:1003000085BB83B3807F803719F483E40E94790032
:1003100087EF85BB83B3807F803719F484E40E9424
:10032000790008958FE084BB8FEF85BB0E94A00009
:10033000C0EFC5BB83B3807F803E51F484E190E081
:100340000E943E000E94E90088EC90E00E943E007E
:1003500083B3807F803D51F484E190E00E943E00B1
:100360000E94230188EC90E00E943E0083B3807FCE
:10037000803B51F484E190E00E943E000E944801DD
:1003800088EC90E00E943E0083B3807F803789F63E
:1003900084E190E00E943E000E946D0188EC90E0B4
:0A03A0000E943E00C6CFF894FFCF84
:00000001FF
